0x93c2 = client port (big endian)
0x1b39 = server port (big endian)
16:48:17.004836 IP 127.0.0.1.37826 > 127.0.0.1.6969: Flags [S], seq 1141958882, win 65495, options [mss 65495,sackOK,TS val 3658332667 ecr 0,nop,wscale 7], length 0
	0x0000:  0000 0000 0000 0000 0000 0000 0800 4500  ..............E.
	0x0010:  003c 8082 4000 4006 bc37 7f00 0001 7f00  .<..@.@..7......
	0x0020:  0001 93c2 1b39 4410 e8e2 0000 0000 a002  .....9D.........
	0x0030:  ffd7 fe30 0000 0204 ffd7 0402 080a da0d  ...0............
	0x0040:  b9fb 0000 0000 0103 0307                 ..........
16:48:17.004848 IP 127.0.0.1.6969 > 127.0.0.1.37826: Flags [S.], seq 578536310, ack 1141958883, win 65483, options [mss 65495,sackOK,TS val 3658332667 ecr 3658332667,nop,wscale 7], length 0
	0x0000:  0000 0000 0000 0000 0000 0000 0800 4500  ..............E.
	0x0010:  003c 0000 4000 4006 3cba 7f00 0001 7f00  .<..@.@.<.......
	0x0020:  0001 1b39 93c2 227b c376 4410 e8e3 a012  ...9.."{.vD.....
	0x0030:  ffcb fe30 0000 0204 ffd7 0402 080a da0d  ...0............
	0x0040:  b9fb da0d b9fb 0103 0307                 ..........
16:48:17.004857 IP 127.0.0.1.37826 > 127.0.0.1.6969: Flags [.], ack 1, win 512, options [nop,nop,TS val 3658332667 ecr 3658332667], length 0
	0x0000:  0000 0000 0000 0000 0000 0000 0800 4500  ..............E.
	0x0010:  0034 8083 4000 4006 bc3e 7f00 0001 7f00  .4..@.@..>......
	0x0020:  0001 93c2 1b39 4410 e8e3 227b c377 8010  .....9D..."{.w..
	0x0030:  0200 fe28 0000 0101 080a da0d b9fb da0d  ...(............
	0x0040:  b9fb                                     ..
16:48:21.642637 IP 127.0.0.1.37826 > 127.0.0.1.6969: Flags [P.], seq 1:19, ack 1, win 512, options [nop,nop,TS val 3658337305 ecr 3658332667], length 18
	0x0000:  0000 0000 0000 0000 0000 0000 0800 4500  ..............E.
	0x0010:  0046 8084 4000 4006 bc2b 7f00 0001 7f00  .F..@.@..+......
	0x0020:  0001 93c2 1b39 4410 e8e3 227b c377 8018  .....9D..."{.w..
	0x0030:  0200 fe3a 0000 0101 080a da0d cc19 da0d  ...:............
	0x0040:  b9fb 6865 6c6c 6f20 6672 6f6d 2063 6c69  ..hello.from.cli
	0x0050:  656e 740a                                ent.
16:48:21.642678 IP 127.0.0.1.6969 > 127.0.0.1.37826: Flags [.], ack 19, win 512, options [nop,nop,TS val 3658337305 ecr 3658337305], length 0
	0x0000:  0000 0000 0000 0000 0000 0000 0800 4500  ..............E.
	0x0010:  0034 f34c 4000 4006 4975 7f00 0001 7f00  .4.L@.@.Iu......
	0x0020:  0001 1b39 93c2 227b c377 4410 e8f5 8010  ...9.."{.wD.....
	0x0030:  0200 fe28 0000 0101 080a da0d cc19 da0d  ...(............
	0x0040:  cc19                                     ..
16:48:27.482453 IP 127.0.0.1.6969 > 127.0.0.1.37826: Flags [P.], seq 1:19, ack 19, win 512, options [nop,nop,TS val 3658343145 ecr 3658337305], length 18
	0x0000:  0000 0000 0000 0000 0000 0000 0800 4500  ..............E.
	0x0010:  0046 f34d 4000 4006 4962 7f00 0001 7f00  .F.M@.@.Ib......
	0x0020:  0001 1b39 93c2 227b c377 4410 e8f5 8018  ...9.."{.wD.....
	0x0030:  0200 fe3a 0000 0101 080a da0d e2e9 da0d  ...:............
	0x0040:  cc19 6865 6c6c 6f20 6672 6f6d 2073 6572  ..hello.from.ser
	0x0050:  7665 720a                                ver.
16:48:27.482495 IP 127.0.0.1.37826 > 127.0.0.1.6969: Flags [.], ack 19, win 512, options [nop,nop,TS val 3658343145 ecr 3658343145], length 0
	0x0000:  0000 0000 0000 0000 0000 0000 0800 4500  ..............E.
	0x0010:  0034 8085 4000 4006 bc3c 7f00 0001 7f00  .4..@.@..<......
	0x0020:  0001 93c2 1b39 4410 e8f5 227b c389 8010  .....9D..."{....
	0x0030:  0200 fe28 0000 0101 080a da0d e2e9 da0d  ...(............
	0x0040:  e2e9                                     ..
16:48:35.234840 IP 127.0.0.1.6969 > 127.0.0.1.37826: Flags [F.], seq 19, ack 19, win 512, options [nop,nop,TS val 3658350897 ecr 3658343145], length 0
	0x0000:  0000 0000 0000 0000 0000 0000 0800 4500  ..............E.
	0x0010:  0034 f34e 4000 4006 4973 7f00 0001 7f00  .4.N@.@.Is......
	0x0020:  0001 1b39 93c2 227b c389 4410 e8f5 8011  ...9.."{..D.....
	0x0030:  0200 fe28 0000 0101 080a da0e 0131 da0d  ...(.........1..
	0x0040:  e2e9                                     ..
16:48:35.283047 IP 127.0.0.1.37826 > 127.0.0.1.6969: Flags [.], ack 20, win 512, options [nop,nop,TS val 3658350946 ecr 3658350897], length 0
	0x0000:  0000 0000 0000 0000 0000 0000 0800 4500  ..............E.
	0x0010:  0034 8086 4000 4006 bc3b 7f00 0001 7f00  .4..@.@..;......
	0x0020:  0001 93c2 1b39 4410 e8f5 227b c38a 8010  .....9D..."{....
	0x0030:  0200 fe28 0000 0101 080a da0e 0162 da0e  ...(.........b..
	0x0040:  0131                                     .1
16:48:39.650773 IP 127.0.0.1.37826 > 127.0.0.1.6969: Flags [P.], seq 19:20, ack 20, win 512, options [nop,nop,TS val 3658355313 ecr 3658350897], length 1
	0x0000:  0000 0000 0000 0000 0000 0000 0800 4500  ..............E.
	0x0010:  0035 8087 4000 4006 bc39 7f00 0001 7f00  .5..@.@..9......
	0x0020:  0001 93c2 1b39 4410 e8f5 227b c38a 8018  .....9D..."{....
	0x0030:  0200 fe29 0000 0101 080a da0e 1271 da0e  ...).........q..
	0x0040:  0131 0a                                  .1.
16:48:39.650796 IP 127.0.0.1.6969 > 127.0.0.1.37826: Flags [R], seq 578536330, win 0, length 0
	0x0000:  0000 0000 0000 0000 0000 0000 0800 4500  ..............E.
	0x0010:  0028 0000 4000 4006 3cce 7f00 0001 7f00  .(..@.@.<.......
	0x0020:  0001 1b39 93c2 227b c38a 0000 0000 5004  ...9.."{......P.
	0x0030:  0000 1cdd 0000                           ......

